:0200000420409A
:10000000F322103093F2020263870200996273A018
:100010000230731030008140014181410142814230
:1000200001438143014481440146814601478147A0
:100030000148814801498149014A814A014B814B6C
:10004000014C814C014D814D014E814E014F814F3C
:100050009711C05F938101D79702000093828212AB
:10006000739052302149731049308144732940F113
:1000700063912407972200009382C2541703C05F44
:10008000130343F8638062029703C05F9383835432
:10009000637A730003AE02002320C30191021103AF
:1000A000E36A73FE938201841383819063F7620095
:1000B00023A002009102E3ED62FEB70400020549AD
:1000C00023A0240191043709000213090908E3C899
:1000D00024FF730050107329403413798900E30A18
:1000E00009FEB7040002732940F10A09269923206A
:1000F000090003A90400E31E09FE91043709000268
:1001000013090908E3C724FF1781C05F130181EFBA
:10011000F32240F11393A200330161400143639B3A
:100120006202192411A07D5501CD2A8E91623733C8
:1001300000001303333342051A9523A0A20001A047
:100140000F00F00F9162375300001303535523A0A3
:10015000620001A0732540F1292801CD2A8E916209
:10016000373300001303333342051A9523A0A2004E
:1001700001A073005010F5BF130000001300000031
:10018000197106C20EC612C816CA1ACC1ECE22D0CB
:1001900026D22AD42ED632D836DA3ADC3EDEC2C097
:1001A000C6C2CAC4CEC6D2C8D6CADACCDECEE2D067
:1001B000E6D2EAD4EED6F2D8F6DAFADCFEDE0A852A
:1001C000EF0060049240B2414242D2426243F243A5
:1001D000025492542255B2554256D2566257F257A3
:1001E000064896482649B649464AD64A664BF64BD3
:1001F000065C965C265DB65D465ED65E665FF65F23
:10020000096173002030F32220343305500039BFD8
:1002100000000000000000000000000000000000DE
:1002200000000000000000000000000000000000CE
:1002300001114AC83729402006CE22CC26CA338471
:10024000A5004EC652C4AA8413050908AE89034A04
:100250000400EF00C0705D45EF002074372540209A
:1002600013054508EF00A06F0145EF000073372527
:10027000402013058508E52513050908CD2513053C
:100280005002EF008071372540201305C508C12DAD
:100290002285F12599C4230004004E85C925230039
:1002A0004401F2406244D2444249B249224A0561C3
:1002B0008280011122CC372440204EC6AA89130522
:1002C000040806CE26CA4AC8B684328952C42E8A89
:1002D00079255285D9253725402013054508412524
:1002E0004E85652D37254020130585088D2D130576
:1002F0000408B5254A855525372540201305C5082E
:10030000B92D63CE040037254020130585096244CA
:10031000F240D2444249B249224A056189A53725B3
:10032000402013050509E5B7297101452328A111CE
:10033000232E1112232C8112232A911223282113F8
:100340002326311323244113232251132320611325
:10035000232E7111232C8111232A91112326B111EF
:10036000E921B7274020938747102A8D74191386F7
:10037000070483A8070003A847008847CC4723A0A9
:10038000160123A2060188C6CCC6C107C106E392A6
:10039000C7FE9C431309C106C4009CC2EF009072C3
:1003A000B7270110945F370698FF7D16F18E94DF12
:1003B00094473706680037254020D18E94C7B44350
:1003C0001305050A930AC101D18EB4C394470144B1
:1003D000554A93E6862294C759239D497D5C854BF7
:1003E000294B09A823A076010504910A910411095B
:1003F000630564056A8515299377F503850723A0AE
:10040000FA002521B377450385079CC03929B377C6
:100410003503FD072320F900092993162400580904
:10042000137615002A8DBA9655FE23A08601050481
:10043000910A91041109E31F64FB372401105C4405
:10044000B706200037657307D58F130505945CC484
:10045000EF00B02F5C44B7060800D58F5CC4EF10E6
:10046000F002B7254020130640069385850B3745DB
:100470000210EF10C07F635305025C44B7064000D2
:10048000D58F5CC45C44B706F8FFFD16F58F5CC4DD
:100490005C44B706E0FFFD16F58F5CC4B72540202D
:1004A0001306803E9385850C37450210EF10207CA3
:1004B00063590500B7260110DC4637064000D18F8E
:1004C000DCC6B7254020130640069385450D374509
:1004D0000210EF10C079B72540201306400693851F
:1004E000450E37450210EF1080781305007DEF00B0
:1004F000E073372540201305450F9521B70798FF76
:10050000FD1702C402C2814B930A41043EC6130A7E
:10051000C10B154B6819EF10D02533357501B7277E
:1005200040207D15B3FBAB001385C70F0D296C1957
:100530005E854009F539228C9309C10613094104EF
:10054000640883260C0003A609008325090088405F
:1005500091041109B93B9109110CE3949AFEB72655
:100560000110D046924732478507798ED0C613F7DF
:10057000770093F517003AC291E5D046B7054000E1
:100580004D8ED0C6898B81EBB7260110DC4637062D
:100590000800D18FDCC69247898781EBB72601100E
:1005A000DC4637062000D18FDCC6930DC101C400A4
:1005B0009309800205497D5C2DA09307000463D454
:1005C0009701232084016A858D24B3E76C032A8D6B
:1005D00081E7B37765038DCB11049104910D630915
:1005E0008A046A859924B37735032A8DE376F9FE68
:1005F00083A70D001040B38CC70023A09D01E34EDC
:1006000099FB23202401C1B70D24137615002A8DF0
:100610009C4015CA85079CC0635BF0025947E35DA7
:10062000F7FAF9179CC011049104910DE31B8AFAA3
:10063000A2471305200385073E843EC4C52B93774C
:100640001400BE9BC1BDFD179CC0E349F0FC8907A7
:100650009CC059B7B7260110CC4637066800B3775F
:10066000C50093C7F7FF1347F5FF33F5B700B3771E
:10067000C7005D8DC8C6828041113707680006C675
:10068000B72701101307070398C723AC0702D8C781
:100690007D5737052000D8CB753FB2400145410159
:1006A0008280411106C67D15894763EEA700B727F2
:1006B0004020938787140A053E950841613FB24068
:1006C000054541018280370540006937B240054544
:1006D0004101828041113705080006C6A53FB2409E
:1006E000014541018280373702101C43E3CF07FEEA
:1006F00008C38280B707011088D7F32700B073279B
:1007000000B813851700B337F5003E97F32600B005
:10071000F32700B8E3ECE7FE6314F700E3E8A6FE76
:10072000130EF6FF9307E003335EFE028146054396
:100730003705011013080002050E21A08506638904
:100740000609B3D7D500858BF5DBB317D3005CD58D
:10075000F32700B0732700B893881700B3B7F800E9
:100760003E97732600B0F32700B8E3ECE7FE63146E
:10077000F700E36816FF23226500F32700B0732714
:1007800000B8B388C701B3B7F8003E97732600B02E
:10079000F32700B8E3ECE7FE6314F700E36816FF05
:1007A00023220500F32700B0732700B89388770051
:1007B000B3B7F8003E97732600B0F32700B8E3EC18
:1007C000E7FEE31DF7F6E36816FF8506E39B06F7F1
:1007D0008280732500B0F32500B88280B7C700027D
:1007E00023AC07FE83A687FF732600B0F32700B86B
:1007F00037C70002832787FF958FE3EDA7FEF32716
:1008000000B0732700B8918F33D5A7023305B50226
:10081000828083A70184AA863737011091C3E1B58E
:100820001C43E3CF07FE14C3828009E5732500B0A3
:10083000F32700B81357E5019357A500B98FA98F87
:100840001357F501B98FFE0705815D8D828037272B
:1008500001101C47B726011093E707021CC7F327B6
:1008600000B0732700B893F70720F5FBDC4693E749
:100870000702DCC6F32700B0732700B893F7072000
:10088000F5DBDC4693F7F7FDDCC6D1BF83A8018416
:10089000638A080AB737021003A847004DC9635B93
:1008A0000001B7360110373702106386080A5C432F
:1008B000E34DF0FE374EF0FF01430146373F011094
:1008C000B73E0210B72601101305401F7D1EB7CF9B
:1008D0000F006386080603A84E00F32700B07327B5
:1008E00000B893F70720F5FBDC4693E70702DCC668
:1008F000F32700B0732700B893F70720F5DBDC4639
:100900001307160093F7F7FDDCC66376C5023A8637
:1009100091CDD84605039317E3003377C701D8C6B6
:10092000D846B3F7F7010146D98FDCC6E35300FB85
:100930001375F80F82803A86E35D00F9D5BF03286E
:100940004F0061BFB737011003A8470029F90145DF
:10095000E34000FF8280DC42E349F0F4A1BF411193
:1009600022C426C24AC006C6AA843734011003C571
:10097000040009C983A70184850499CBAD3303C55D
:1009800004006DF9B2402244924402494101828040
:100990001C40E3CF07FE08C0D9BF01114AC852C4AA
:1009A00006CE22CC26CA4EC656C22A8983A6018408
:1009B000634B050649C581440144294711A0BE8403
:1009C0003376E902931724003E94060493871400BB
:1009D0003359E9023294E31409FEA9493739011069
:1009E000FD5A09A8FD1401333354340363845403BE
:1009F00083A601843375340313050503E5F68327C5
:100A00000900E3CE07FE2320A900FD14335434036C
:100A1000E39054FFF2406244D2444249B249224A30
:100A2000924A056182803737011089EE1C43E3CF7B
:100A300007FE9307D0021CC333092041ADBF014418
:100A4000814461BF1305D002793983A6018433093B
:100A5000204195B7011122CC2A841305803E3355DD
:100A6000A4024EC606CE26CA4AC852C456C235375C
:100A700003A70184B736011035EB9C42E3CF07FE94
:100A80009307E0029CC2930A803E33745403130A16
:100A900040060D49B73401103355440313050503CF
:100AA0001375F50F05C77D193D39630809029317C2
:100AB00024003E9406043374540303A70184335581
:100AC0004403130505031375F50F71FF9C40E3CF35
:100AD00007FE88C07D19E31C09FCF2406244D24441
:100AE0004249B249224A924A056182801305E002D6
:100AF000DD3E03A7018441BF01114EC683A70184D7
:100B000022CC06CE26CA4AC852C42A8437370110DE
:100B1000ADEF1C43E3CF07FE930700031CC3373739
:100B200001101C43E3CF07FE930780071CC3214934
:100B3000370A00A0B734011009A8130505039DCF9B
:100B40007D1955361204630309021355C40183A7A6
:100B50000184E36444FF13057505FDF39C40E3CF76
:100B600007FE88C07D191204E31109FEF2406244B9
:100B7000D2444249B249224A056182809C40E3D274
:100B800007FE9C40E3CC07FEE9BF13050003A13E2E
:100B900083A70184C9D713058007B13649BF411126
:100BA00022C426C206C62A84AE8415C93725402031
:100BB000130505166D3326855D3337254020130553
:100BC000C516713B2285D13B372540201305C5252D
:100BD00079332285B24022449244410182802E859D
:100BE000BD3B3725402013054515953B2285B24076
:100BF0002244924441018280732600B0732700B8DA
:100C00009307F5FF1305E003B3D7A70285073E96C8
:100C1000B337F600BA97F32600B0732700B8E36C39
:100C2000F7FE6394E700E3E8C6FE82809317550061
:100C300037C70002232C07FE3E95832787FFE3EE8C
:100C4000A7FE8280B7C7000223AC07FE37C70002A9
:100C5000832787FFE3EEA7FE8280B7C70002856681
:100C600023AC07FE938636CE03A787FF138687FF44
:100C7000E3FCE6FE83A70184D9C7B7270110D85F3C
:100C8000B7067CFFFD16758FD8DF985FB706840026
:100C9000558F98DFB707008003A8075C2320060064
:100CA0001042F32800B0F32700B88565B7C60002EC
:100CB000138775BB83A786FF918FE37DF7FEF3272C
:100CC00000B0732700B8B3871741938585BBB3D7AE
:100CD000B70237370210B7C60002B387070333D510
:100CE000A7027D1508CF1C4793E717001CC7B7C79D
:100CF0000002056723AC07FE130737CE83A786FFE4
:100D0000E37EF7FE8280B7270110D85FB706FDFFAC
:100D1000FD16758FD8DF985FB7060300558F98DFF3
:100D2000B707008003A8075C232006001042F328C1
:100D300000B0F32700B88565B7C60002138775BBFE
:100D400083A786FF918FE37DF7FEF32700B073271B
:100D500000B8B3871741938585BBB3D7B702373740
:100D6000011095BFB7870010D8439316170063C2D0
:100D70000602D843B7060040558FD8C38566B7C76B
:100D8000000223AC07FE938636CE03A787FFE3FE5F
:100D9000E6FE378700101C47B7060400D58F1CC736
:100DA000B7C7000223AC07FE9306106703A787FFAF
:100DB000138687FFE3FCE6FE378700101C439396FB
:100DC000170063C30602144337080040B7C7000288
:100DD000B3E6060114C3856623200600938636CE4B
:100DE00003A787FFE3FEE6FE9317050137051F0003
:100DF000E98F93F5F50237070040CD8FBA97378713
:100E000000101CC3B7C7000223AC07FE130610670F
:100E100003A787FF938687FFE37CE6FE37860010F3
:100E20001C4641777D17F98F1CC623A006001307C7
:100E30001067B7C6000283A786FFE37EF7FE3787F9
:100E400000101C47B70604007165D58F1CC7130539
:100E5000052021B5B7870010D8439316170063C447
:100E60000602D84337080040B7C6000233670701BF
:100E7000D8C3B7C7000223AC07FE9307901403A79B
:100E800086FFE3FEE7FE378700101C47B706040025
:100E90001308400AD58F1CC7B7C7000223AC07FE52
:100EA00003A787FF938687FFE37CE8FE3787001060
:100EB0001C47370802002A06B3E707011CC70328AE
:100EC000870093974500C165B365B8000CC70C4710
:100ED0000568130808C033780601417693F7073F89
:100EE0006D8E1D89B3E70701518DAA971CC723A0FA
:100EF0000600B7C700029306901403A787FF138666
:100F000087FFE3FCE6FEB78700109C4763CB070032
:100F1000B78600109C463707FCFF7D17F98F9CC6EB
:100F20008280116723200600B7C600021307370727
:100F300083A786FFE37EF7FEB78600109C4637073F
:100F4000FCFF7D17F98F9CC68280B7A507009385AB
:100F50000512B355B502B7870010984798479C47CC
:100F6000411106C69307000863FFB70413951500E7
:100F7000AA95898563D6B70886050D4533C5A502B0
:100F80009355154063D9A70663D3B70693562540FA
:100F9000935535400146054563D6D7048585B7C7C7
:100FA0000002FD1523AC07FEB7C60002130790141C
:100FB00083A786FFE37EF7FE713DB240716513059E
:100FC0000520410159B991470D450D4613D71540EC
:100FD000B387E702930600308607E3D1F6FC7D165F
:100FE000BA856DBF2E87A147B6850546D5B7A147FF
:100FF00005450946E1BFAA85A14705450D46F9B754
:10100000954709450D46D9B7B7070110854694C3E2
:10101000984375DF8280B707011023A00700828004
:10102000B70701100546854694C3984375DFD0D3B2
:1010300090CB114798CFF32700B0732700B81386E1
:101040009700B337F6003E97F32600B0F32700B8B9
:10105000E3ECE7FE6314F700E3E8C6FE8280B7071F
:10106000011023AC070023A8070023A20702F327DF
:1010700000B0732700B813861703B337F6003E9706
:10108000F32600B0F32700B8E3ECE7FE6314F700A3
:10109000E3E8C6FEB707011023A00700828099C1CC
:1010A0006FF04FE58280B70702000A053E950841C0
:1010B00082806357C002131725000A060D8FB707F9
:1010C00002002E9601453E97B307B7009C4394411A
:1010D000910593C7F7FFF58F5D8DE397C5FE82807D
:1010E0000145828001114EC6B28922CC52C406CE7F
:1010F00026CA4AC856C25AC02A8A2E84153763584F
:101100003003939A2900316BA2845289A29A130B5F
:101110000B3521A00509638C54018C409104FDD945
:101120004A855A86EFF00FDD0509E39854FFB707AB
:10113000011023AC070023A8070023A20702F3270E
:1011400000B0732700B813861703B337F6003E9735
:10115000F32600B0F32700B8E3ECE7FE6314F700D2
:10116000E3E8C6FEB707011023A00700635230056D
:1011700093162A0013972900818EB7070200A285D3
:1011800022970145BE96B387B6009C4390419105D6
:1011900093C7F7FFF18F5D8DE397E5FEF240624460
:1011A000D2444249B249224A924A024B05618280A6
:1011B0000145EDB76352C00493172500B70802003C
:1011C000B386F800984194421347F7FF758F49E7BB
:1011D0008D8F138745008146BE9811A81C430328B4
:1011E0000800110793C7F7FFB3F70701B5E78506B6
:1011F0003388E800E314D6FEB16601119386063504
:1012000022CC26CA4AC84EC606CE52C4AE84AA898B
:101210003284C93D294905C9372A0600130A0AA89C
:10122000D2862286A6854E85753D7D1909CDE319A6
:1012300009FEF2406244D2444249B249224A1305AF
:10124000602005618280F2406244D2444249B24942
:10125000224A0145056182801305701F8280B7878D
:1012600000103707060098C798474166B7C60002C6
:10127000518F98C723AC06FE03A686FF732800B0E3
:10128000F32700B88565138775BB83A786FF918F09
:10129000E37DF7FE732500B0F32700B83305054161
:1012A000938585BB3355B5029307803E3E05335584
:1012B000F502B707401F33D5A702B707008023A068
:1012C000A75C8280374701103C43011106CEF19B99
:1012D0003CC3F3770430B727011023A4070023ACE5
:1012E000070203A7018423A6070023A007045DC308
:1012F000D84737068400B7057CFF518FD8C794477D
:1013000037370210D18E94C7D45FFD15ED8ED4DF30
:10131000945FD18E94DF9307A0081CCFC167850727
:101320001CC785475CC702C6B24709671307F77039
:101330006348F700B24785073EC6B247E35CF7FE55
:10134000B78700103707060098C79847C166558FC2
:1013500098C731373725402013050518EFF02FE0E7
:101360003725402013058518EFF06FDF3725402023
:1013700013050519EFF0AFDE372540201305851959
:10138000EFF0EFDDF240372540201305451A0561E7
:101390006FF0EFDCD84737060300B705FDFF518F2C
:1013A000D8C7944737370110D18E94C7D45FB1BFE7
:1013B00086057D152E95B355B5023335B0003385BE
:1013C000A540828093078504AFA7B740E3CC07FE12
:1013D00082807C45E3CF07FE13F5F70F82809307E9
:1013E0008504AFA7B740E3CC07FE7C45E3CF07FEFB
:1013F00013F5F70F8280184DAA87719B136727009A
:1014000018CD0D47138587042F25E540E34C05FED5
:10141000F847E34F07FE135706011377F70F1385BD
:1014200087042F25E540E34C05FEF847E34F07FE10
:10143000135786001377F70F138587042F25E54090
:10144000E34C05FEF847E34F07FE1376F60F1387CC
:1014500087042F27C740E34C07FEF847E34F07FEFA
:1014600095C23386D5008146138787042F27D7403E
:10147000E34C07FEF847E34F07FE2380E5008505B0
:10148000E394C5FE984F0145719B98CF828041112E
:1014900022C406C62A84EF00D01322958347150084
:1014A000228593F7770991EB13053002EFF06FB6C1
:1014B0002285EFF08FCE130500022244B240410195
:1014C0006FF02FB58347050095CF411122C406C6A2
:1014D0002A8421A08347040095C3EF00900F03479F
:1014E000040005043A958347150093F77709FDD367
:1014F0003A85EFF00FB283470400E5F3B24022448F
:10150000410182808280B72701109C43411122C48F
:1015100026C206C64AC093F70740AA8401448DE359
:101520006350A0023729011019A0638E8400294559
:10153000EFF0CFEF83270900050493F70740F5D7B5
:101540006383840001442285B240224492440249CC
:1015500041018280411122C42A84154526C206C653
:10156000AE84EFF0AFEC1C4CF19B93E727001CCC52
:10157000635C900293868184138506041388F4FFCC
:10158000B385A4002A8703C60600B307A740230437
:10159000C4046301F8027C44E3CF07FE2300F70094
:1015A00005078506E311B7FEB24022449244014587
:1015B000410182801C4CF19B1CCCF1BF411106C63D
:1015C000513FB240014541018280797122D4138498
:1015D00081844ECE52CC5EC606D626D24AD056CA9A
:1015E0005AC862C493090404AE8B2A8A2300B4004B
:1015F000A300040023010400A30104001307040C4A
:10160000CE87238007008507E39DE7FE370900802A
:101610000327495C894763E1E7122945ED35032734
:10162000495C4DC5854763E2E71005469145528503
:1016300015372945C93D4DC5A944130C3004054B48
:10164000B72A4020130540067D3DFD1409E5834778
:101650000404638F87018327495C13850A2163741F
:10166000FB00EFF0CFAF054691455285E535F9F81F
:101670002945513D6318050E0327495C894763E1FD
:10168000E708834704041307300401456384E70235
:101690000947638EEB0E05476382EB0E3E85C53B23
:1016A00003451404ED3303452404D53303453404C2
:1016B000F93B0545B250225492540259F249624A0C
:1016C000D24A424BB24B224C456182808947E3FEAD
:1016D000E7F4372540201305C51FEFF04FA8B1B739
:1016E0000327495C8947E3FEE7F8372540201305C7
:1016F0000526EFF0CFA60327495C8947E3F3E7F817
:101700003725402013054527EFF06FA59384490046
:1017100003C509008509A53BE39C99FE37254020B8
:101720001305C525EFF0AFA3A9BF3725402013054A
:10173000451DEFF0CFA2D5BD372540201305451C30
:10174000EFF0EFA1A284930A440003C504008504CE
:101750003D3BE39C9AFE372540201305C525EFF05D
:101760000FA065BD3725402013058523EFF02F9F7F
:101770000327495C8947E3F6E7F059B7372540204E
:1017800013058529EFF0AF9D8347040401BF37257A
:10179000402013054528EFF08F9C83470404FDBDCE
:1017A000797152CC2A8A2E8522D44ECE56CA5AC876
:1017B00006D626D24AD05EC662C4AE8A37040080FE
:1017C000328BEF00007B8327445CAA89DDE38945E7
:1017D0005285E53B2A8949E10327445C894763EF49
:1017E000E70E939B090193DB0B419384818493D78C
:1017F0007B40A380F4009167938707102391F40046
:1018000093F9F907054691455285238034019933B0
:101810000327445C894763EAE70C5A85ED313DE1D3
:101820000327445C894763EDE70C03C7040493076F
:1018300020066305F706372540201305C52E1384BF
:101840000404EFF0CF91938444040345040005049D
:101850003D39E31C94FE0549B25022544A85925406
:101860000259F249624AD24A424BB24B224C45617C
:10187000828056858139372540201305C52AEFF02F
:101880000F8EB1B7372540201305C52BEFF02F8DF4
:1018900003C7040493072006E31FF7F85E86D68586
:1018A00013858184EF00A0700546DE8552855D3189
:1018B00003C7040493073004630BF7045A85A1316E
:1018C00039ED0327445C89470149E3F7E7F83725F9
:1018D00040201305C532EFF08F88BDBF372540206B
:1018E0001305052BEFF0AF87EDBD3725402013051D
:1018F000C52DEFF0CF865A853931E30305F259B78C
:10190000372540201305852DEFF06F8539BF37252A
:10191000402013050530EFF08F84054935BF37258A
:10192000402013054531EFF08F833DB7397126DA3A
:10193000938481844AD84ED656D25ECE62CC6AC891
:101940006EC606DE22DC52D45AD066CAAA8A814903
:1019500037090080372D4020938D0404938B440475
:10196000372C40208326495C894763F6D70013054E
:101970008D33EFE0DFFE8545568581392A8A631A6B
:1019800005148326495C894763E5D7166E8B9387D8
:10199000040C6E84230004000504E31DF4FEA687F6
:1019A000238007008507E39DB7FF054691455685CF
:1019B000553613054006813E25E58327495C894657
:1019C00063E0F61403C6340493062004630ED608BD
:1019D0000544636BF400A547638BF91213054006B9
:1019E000EFF0CFA48509BDBF372540201305453A48
:1019F000EFE0FFF603C53404EFE0BFE11305CC25AB
:101A0000EFE0FFF5A5476384F9108327495CE3778E
:101A1000F4FC372540201305853BEFE05FF47DBFE4
:101A2000372540201305C535EFE07FF38327495C58
:101A30008946E3F9F6F8B727402013850739EFE028
:101A40001FF2EE8C03C50C00850C9134E39C7CFFE7
:101A50001305CC25EFE0BFF003C634049306200441
:101A60008327495CE316D6F683C9140403C604042D
:101A700085469E09B29963EEF608EE87238007003B
:101A80008507E39D87FE0146CE855685E134832692
:101A9000495CCE9423800404854763FCD702372534
:101AA00040201305C53DEFE09FEB638E0900EE99E2
:101AB00003450B00050BEFE05FEE13050002EFE0BE
:101AC0005FD5E3173BFF372540201305C525EFE021
:101AD0001FE9F25062545285D2544259B259225AE7
:101AE000925A025BF24B624CD24C424DB24D216194
:101AF0008280B72740201385C734EFE05FE679B5D1
:101B0000372540201305C537EFE07FE505B7054AC7
:101B1000C9B7372540201305853CEFE05FE44E85CB
:101B2000EFE0BFE713050002EFE0BFCE372540200E
:101B30001305C525EFE0BFE289B779714ECE52CCCF
:101B400026D256CA5AC85EC662C406D622D44AD025
:101B5000AA8B93041003B70A008093898188372CDD
:101B60004020138A8188372B402035A8C1E3B72550
:101B7000402019469385854122852921B72540209B
:101B800019469385C542FD1449CD2285E52EB7251A
:101B900040201946938545444DC12285E526FD57D1
:101BA00055C96383F4065E8551332A8905471305B9
:101BB0000B406315090483A74A5C5284E378F7FA63
:101BC000EFE0FFD92685EFE05FDD1305A003EFE02E
:101BD0005FC413050002EFE0DFC34E85EFE03FD89E
:101BE0001305CC254E84EFE09FD751B74E85D938E9
:101BF0001305CC254E84EFE09FD695BF37254020B6
:101C00001305053FEFE0BFD5B25022544A859254E8
:101C10000259F249624AD24A424BB24B224C4561C8
:101C2000828083A74A5C0549E370F9FE372540208E
:101C300013050542EFE0BFD2C1BF03A74A5C854749
:101C40000949E3F3E7FC3725402013058543EFE01E
:101C50001FD15DBF03A74A5C85477D59E3F6E7FACC
:101C60003725402013050545EFE07FCF71BF4111B7
:101C700022C406C62A842D3609C5B2402244410139
:101C8000828022852244B240410145BDB727011020
:101C9000D45F411106C622C4DD9AD4DFD45F374732
:101CA0000210BD9AD4DFD05FB74602101376F6FD5E
:101CB000D0DFD05F1376F6DFD0DF905F136686004B
:101CC00090DF905F1366060190DF905F1366060257
:101CD00090DF905F1366062090DFD04313660640C6
:101CE000D0C3930740061CC3B70708003CC389470D
:101CF0001CCB3C53F99B3CD3230607021C4FF19BA2
:101D00001CCFFC46E34FF0FE372440201305C425CA
:101D1000EFE0FFC4B7254020130640069385C54574
:101D200037450210A937B725402013064006938592
:101D3000454637450210253FB7254020130640068B
:101D40009385450D374502101D371305C425EFE077
:101D50001FC1B240224401454101828021C6411188
:101D6000970500009385C572328522C406C6328469
:101D7000D52005C197050000938545712285D92896
:101D800009C997050000938525332285E120814705
:101D900009E5970700009387676FB24022443E85AC
:101DA00041018280970700009387476E3E858280BD
:101DB00097F7BF5F9387C7819C43DC5B89E797E711
:101DC000BF5F9387272403C5871282800325C50E32
:101DD000828097E7BF5F9387A77F9C43DC5B89E79F
:101DE00097E7BF5F9387072203A5C70E828097E717
:101DF000BF5F9387E77D2E86AA85884385B797E7DF
:101E0000BF5F9387E77C9C43DC5B89E797E7BF5F15
:101E10009387471F03A3470E028385E141116C009E
:101E2000014511CA795581CA834706009CC1034503
:101E300006003335A00041018280014519CA795559
:101E400089CA834706009CC1034506003335A000BC
:101E5000828082803367B500FD530D8B79E7B787A9
:101E60007F7F9387F7F710419441B372F600336395
:101E7000F600BE92B3E262006397720C6318D60656
:101E80005041D441B372F6003363F600BE92B3E220
:101E900062006398720A631BD60410459445B372BE
:101EA000F6003363F600BE92B3E262006391720AF9
:101EB000631ED6025045D445B372F6003363F60074
:101EC000BE92B3E26200639A72086311D6021049AF
:101ED0009449B372F6003363F600BE92B3E2620037
:101EE000639372085105D105E30FD6F61317060167
:101EF00093970601631CF7001357060193D7060159
:101F00003305F7409375F50F91E982804183C183D2
:101F10003305F7409375F50F91E182801377F70F42
:101F200093F7F70F3305F74082800346050083C619
:101F30000500050585056313D60065FA3305D6400F
:101F4000828011059105E312D6FE014582802105AC
:101F5000A105E31CD6FC014582803105B105E316DD
:101F6000D6FC014582804105C105E310D6FC014540
:101F70008280AA87850703C7F7FF6DFF3385A740D7
:101F80007D1582801DC21307150032958347F7FF28
:101F900083C605006385D7003385D7408280E30D73
:101FA000A7FE0507F5DB8505D5B7014582802A87A1
:101FB00011E28280850583C6F5FF93071700130899
:101FC000F6FFA38FD7FE89E632976396E7008280FB
:101FD0003E874286F1BF8507A38F07FEFDB797E7CF
:101FE000BF5F9387E75E9C43DC5B89E797E7BF5F52
:101FF0009387470103A3070E028391CD9307F00F48
:1020000063F7C7009307A0081CC17D558280238019
:10201000C500054582800145828000000000000067
:1020200000000000000000000000000000000000B0
:1020300000000000000000000000000000000000A0
:102040000000000000000000000000000000000090
:0A2050000000000000000000000086
:102080001B5B00003B000000660000006D000000CC
:102090003C2728283C0000003E2929273E0000005C
:1020A000537061776E696E67206669736865732E19
:1020B0002E2E0D0A0000000041542B43574D4F4473
:1020C000453D310D0A00000041542B43574C41500F
:1020D0000D0A000041542B43574D4F44453D300DF0
:1020E0000A00000041542B534C4545503D310D0A28
:1020F000000000001B5B3F32356C00001B5B324A66
:102100000000000053694669766520453220436F20
:1021100072654950202D2046453234302D473030ED
:1021200030202D2045323120436F7265202B204610
:102130005055202B2036344B205352414D202B201C
:10214000434C4943202D200000004800000060005F
:1021500000006800205041535345440D0A00000020
:102160000D0A4552524F523A200000002046414984
:102170004C4544205749544820434F4445200000D3
:102180001B5B3146000000001B5B304A0000000072
:102190001B5B3F32356800001B5B303B33393B34FF
:1021A000396D000042656E636820436C6F636B207D
:1021B000526573657420436F6D706C6574650D0AAC
:1021C0000000000053656E64696E6720466C6167AD
:1021D0003A20000053656E6420466C6167205469A4
:1021E0006D6564204F75742057616974696E67204E
:1021F000666F722052656164790D0A0053656E64E2
:1022000020466C616720537461727465640D0A0026
:1022100053656E6420466C61672054696D65642067
:102220004F757420427573792E20526574727969E6
:102230006E672E0D0A00000053656E6420466C61C7
:10224000672054696D6564204F75742042757379F9
:102250002E20476976696E672055702E0D0A0000A2
:1022600053656E6420466C616720446F6E650D0A8D
:1022700000000000466C6167205265636569766501
:10228000643A20002053656E6420466C61672065C7
:1022900072726F723A200000205265637620466C9D
:1022A0006167206572726F723A2000002D2D3E002A
:1022B000466C61672053656E740D0A00434D4420DF
:1022C0004C656E6774682054696D6564204F757441
:1022D00020427573790D0A00434D44204C656E67AA
:1022E00074682053656E740D0A00000053656E64B7
:1022F000206C656E677468206572726F723A200098
:102300002053656E642073796E63206572726F72FC
:1023100020000000434D442054696D6564204F75D2
:102320007420427573790D0A00000000434D44206B
:10233000446F6E650D0A00005245435620466C619D
:102340006720436865636B0D0A00000052454356E1
:1023500020466C6167204F4B0D0A00005265636593
:10236000697665204C656E6774682054696D656494
:10237000204F757420427573790D0A0052656365AC
:10238000697665204C656E677468204F4B0D0A00B6
:102390004C656E6774682052656365697665643A5A
:1023A0002000000052656376206C656E67746820BB
:1023B0006572726F723A20005265747279696E6745
:1023C0002E2E2E0D0A00000052656376204C656E9D
:1023D0006774682069733A200000000072785F62B9
:1023E000756620636F6E74656E74733A200000002A
:1023F000676F742072656376206572726F72200059
:102400004F746865722052656376206D65737361E1
:1024100067652320000000000D0A4F4B0D0A0000E5
:10242000676F74206F6B0D0A000000000D0A726563
:102430006164790D0A000000676F74207265616441
:10244000790D0A000D0A4552524F520D0A00000044
:10245000676F74206572726F720D0A0041544530C7
:102460000D0A000041542B424C45494E49543D3021
:102470000D0A0052554E0D0A00504153530046417B
:10248000494C20000D0A000043000000504F534902
:10249000580000002E0000000020202020202020D6
:1024A0002020282828282820202020202020202004
:1024B0002020202020202020208810101010101014
:1024C0001010101010101010100404040404040460
:1024D00004040410101010101010414141414141FA
:1024E00001010101010101010101010101010101DC
:1024F00001010101101010101010424242424242EC
:1025000002020202020202020202020202020202AB
:102510000202020210101010200000000000000053
:1025200000000000000000000000000000000000AB
:10253000000000000000000000000000000000009B
:10254000000000000000000000000000000000008B
:10255000000000000000000000000000000000007B
:10256000000000000000000000000000000000006B
:10257000000000000000000000000000000000005B
:10258000000000000000000000000000000000004B
:0925900000000000000000000042
:1025C00043000000000000000000000000000000C8
:1025D00000000000000000000000000000000000FB
:1025E00043000000000000000000000000000000A8
:1025F00000000000000000000000000000000000DB
:102600004300000000000000000000000000000087
:1026100000000000000000000000000000000000BA
:102620004300000000000000000000000000000067
:10263000000000000000000000000000000000009A
:102640004300000000000000000000000000000047
:10265000000000000000000000000000000000007A
:102660004300000000000000000000000000000027
:10267000000000000000000000000000000000005A
:102680004300000000000000000000000000000007
:10269000000000000000000000000000000000003A
:1026A000FA1F40201A1E40200000000098244020FD
:1026B00094244020B4204020B4204020B420402066
:1026C000B4204020B4204020B4204020B42040203A
:1026D000B4204020B4204020FFFFFFFFFFFFFFFF9A
:1026E000FFFFFFFFFFFF0000010041534349490086
:1026F00000000000000000000000000000000000DA
:102700000000000000000000000041534349490060
:1027100000000000000000000000000000000000B9
:1027200000000000000000000000000000000000A9
:10273000000000005C040080C40400802C050080C0
:102740000000000000000000000000000000000089
:102750000000000000000000000000000000000079
:102760000000000000000000000000000000000069
:102770000000000000000000000000000000000059
:102780000000000000000000000000000000000049
:102790000000000000000000000000000000000039
:1027A0000000000000000000000000000000000029
:1027B0000000000000000000000000000000000019
:1027C0000000000000000000000000000000000009
:1027D00000000000000000000100000000000000F8
:1027E0000E33CDAB34126DE6ECDE05000B000000BD
:1027F00000000000000000000000000000000000D9
:1028000000000000000000000000000000000000C8
:1028100000000000000000000000000000000000B8
:1028200000000000000000000000000000000000A8
:102B800000800000010000007001008070010080E2
:040000052040000097
:00000001FF
